{
  "contractName": "supermarket",
  "abi": [
    {
      "inputs": [],
      "stateMutability": "nonpayable",
      "type": "constructor"
    },
    {
      "anonymous": false,
      "inputs": [
        {
          "indexed": false,
          "internalType": "address",
          "name": "",
          "type": "address"
        },
        {
          "indexed": false,
          "internalType": "uint256[]",
          "name": "",
          "type": "uint256[]"
        },
        {
          "indexed": false,
          "internalType": "uint256[]",
          "name": "",
          "type": "uint256[]"
        },
        {
          "indexed": false,
          "internalType": "uint256[]",
          "name": "",
          "type": "uint256[]"
        },
        {
          "indexed": false,
          "internalType": "uint256",
          "name": "",
          "type": "uint256"
        },
        {
          "indexed": false,
          "internalType": "uint256",
          "name": "",
          "type": "uint256"
        },
        {
          "indexed": false,
          "internalType": "bool",
          "name": "",
          "type": "bool"
        }
      ],
      "name": "purchase_made",
      "type": "event"
    },
    {
      "inputs": [],
      "name": "store",
      "outputs": [
        {
          "internalType": "address payable",
          "name": "",
          "type": "address"
        }
      ],
      "stateMutability": "view",
      "type": "function",
      "constant": true
    },
    {
      "inputs": [
        {
          "internalType": "uint256[]",
          "name": "_items",
          "type": "uint256[]"
        },
        {
          "internalType": "uint256[]",
          "name": "_unit_prices",
          "type": "uint256[]"
        },
        {
          "internalType": "uint256[]",
          "name": "_qty",
          "type": "uint256[]"
        },
        {
          "internalType": "uint256",
          "name": "_total",
          "type": "uint256"
        }
      ],
      "name": "make_purchase",
      "outputs": [],
      "stateMutability": "payable",
      "type": "function",
      "payable": true
    }
  ],
  "bytecode": "0x608060405234801561001057600080fd5b5073a64a0f49d8bb186b26c5577a5d419e0ff3df067c6000806101000a81548173ffffffffffffffffffffffffffffffffffffffff021916908373ffffffffffffffffffffffffffffffffffffffff160217905550610552806100746000396000f3fe6080604052600436106100295760003560e01c8063975057e71461002e578063d37cf72b14610085575b600080fd5b34801561003a57600080fd5b5061004361026f565b604051808273ffffffffffffffffffffffffffffffffffffffff1673ffffffffffffffffffffffffffffffffffffffff16815260200191505060405180910390f35b61026d6004803603608081101561009b57600080fd5b81019080803590602001906401000000008111156100b857600080fd5b8201836020820111156100ca57600080fd5b803590602001918460208302840111640100000000831117156100ec57600080fd5b919080806020026020016040519081016040528093929190818152602001838360200280828437600081840152601f19601f8201169050808301925050505050505091929192908035906020019064010000000081111561014c57600080fd5b82018360208201111561015e57600080fd5b8035906020019184602083028401116401000000008311171561018057600080fd5b919080806020026020016040519081016040528093929190818152602001838360200280828437600081840152601f19601f820116905080830192505050505050509192919290803590602001906401000000008111156101e057600080fd5b8201836020820111156101f257600080fd5b8035906020019184602083028401116401000000008311171561021457600080fd5b919080806020026020016040519081016040528093929190818152602001838360200280828437600081840152601f19601f82011690508083019250505050505050919291929080359060200190929190505050610294565b005b6000809054906101000a900473ffffffffffffffffffffffffffffffffffffffff1681565b8034101561030a576040517f08c379a00000000000000000000000000000000000000000000000000000000081526004018080602001828103825260198152602001807f496e73756666696369656e7420616d6f756e742073656e742e0000000000000081525060200191505060405180910390fd5b6000809054906101000a900473ffffffffffffffffffffffffffffffffffffffff1673ffffffffffffffffffffffffffffffffffffffff166108fc829081150290604051600060405180830381858888f19350505050158015610371573d6000803e3d6000fd5b503373ffffffffffffffffffffffffffffffffffffffff166108fc8234039081150290604051600060405180830381858888f193505050501580156103ba573d6000803e3d6000fd5b507f2324d8b328a45ad22f51963415db67bc2f0c21066e53ca23a74fa3df1cef1e703385858585426001604051808873ffffffffffffffffffffffffffffffffffffffff1673ffffffffffffffffffffffffffffffffffffffff1681526020018060200180602001806020018781526020018681526020018515151515815260200184810384528a818151815260200191508051906020019060200280838360005b8381101561047757808201518184015260208101905061045c565b50505050905001848103835289818151815260200191508051906020019060200280838360005b838110156104b957808201518184015260208101905061049e565b50505050905001848103825288818151815260200191508051906020019060200280838360005b838110156104fb5780820151818401526020810190506104e0565b505050509050019a505050505050505050505060405180910390a15050505056fea26469706673582212200088b7ab38906195fcb5c9bf76b5500435fd60f8a44d134fa59b755eaf67ecbc64736f6c63430006030033",
  "source": "pragma solidity ^0.6.0;\n\ncontract supermarket{\n    \n    address payable public store;\n    \n    event purchase_made(address, uint[], uint[], uint[], uint, uint, bool);\n    \n    constructor() public{\n        store = 0xa64A0F49d8Bb186b26C5577A5D419E0FF3dF067C;\n    }\n    \n    function make_purchase(uint[] memory _items, uint[] memory _unit_prices, uint[] memory _qty, uint _total )public payable{\n        require(msg.value >= _total, \"Insufficient amount sent.\");\n        \n        store.transfer(_total);\n        msg.sender.transfer(msg.value-_total);\n        \n        emit purchase_made(msg.sender, _items, _unit_prices, _qty, _total, now, true);\n    }\n}",
  "sourcePath": "/home/abhinav/Desktop/Bar-QRCodeScannerExpo/api/contracts/supermarket.sol",
  "compiler": {
    "name": "solc",
    "version": "0.6.3+commit.8dda9521.Emscripten.clang"
  },
  "schemaVersion": "3.0.20",
  "updatedAt": "2020-02-28T18:59:55.345Z",
  "networkType": "ethereum",
  "devdoc": {
    "methods": {}
  },
  "userdoc": {
    "methods": {}
  }
}